:020000040800F2
:1000000018040024AD020008970F0008490F0008EB
:10001000950F0008190300081111000800000000E6
:100020000000000000000000000000009B0F00081E
:100030001B03000800000000990F00089D0F000836
:10004000C7020008C7020008C7020008C70200086C
:10005000C7020008C7020008C7020008C70200085C
:10006000C7020008C7020008C7020008C70200084C
:10007000C7020008C7020008C7020008C70200083C
:10008000C7020008C7020008C7020008C70200082C
:10009000C7020008C7020008C7020008C70200081C
:1000A000C7020008C7020008C7020008C70200080C
:1000B000C7020008C7020008C7020008C7020008FC
:1000C000C7020008C7020008C7020008C7020008EC
:1000D000C7020008C7020008C7020008C7020008DC
:1000E000C7020008C702000800000000C70200089D
:1000F000C7020008C7020008C7020008C7020008BC
:10010000C7020008C7020008C7020008C7020008AB
:10011000C7020008C7020008C7020008C70200089B
:10012000C7020008C7020008C7020008C70200088B
:10013000C7020008C7020008C7020008C70200087B
:1001400000000000000000000000000000000000AF
:10015000C7020008C7020008C7020008C70200085B
:10016000C7020008C7020008C7020008C70200084B
:10017000C7020008C7020008C7020008000000000C
:10018000C7020008C7020008C7020008C70200082B
:10019000C7020008C7020008C7020008C70200081B
:1001A000C7020008C7020008C7020008C70200080B
:1001B000C7020008C7020008C7020008C7020008FB
:1001C000C7020008C7020008C7020008C7020008EB
:1001D000C7020008C7020008C7020008C7020008DB
:1001E000C7020008C7020008C7020008C7020008CB
:1001F000C7020008C7020008C7020008C7020008BB
:10020000C7020008C7020008C7020008C7020008AA
:10021000C7020008C7020008C7020008C70200089A
:10022000C7020008C7020008C7020008000000005B
:10023000C7020008C702000800000000C70200084B
:10024000C7020008C7020008C7020008C70200086A
:10025000C7020008C7020008C7020008C70200085A
:10026000C7020008C7020008C7020008C70200084A
:10027000C7020008C7020008C7020008000000000B
:10028000C7020008C7020008C702000800000000FB
:1002900000000000C7020008DFF80CD000F02AF8C8
:1002A000004800471511000818040024064880473C
:1002B00006480047FEE7FEE7FEE7FEE7FEE7FEE74B
:1002C000FEE7FEE7FEE7FEE75D1000089902000882
:1002D000D2B201E000F8012B491EFBD27047002288
:1002E000F6E710B513460A4604461946FFF7F0FF35
:1002F000204610BD064C074D06E0E06840F00103C3
:1003000094E8070098471034AC42F6D3FFF7C8FFD3
:10031000F811000818120008FEE7704770B505468E
:100320006E1C00F0EBF804461EB19D4800780544B1
:1003300001E04FF0FF3500F0E1F8001BA842FAD3CE
:1003400070BD00BF2DE9FC4F5D4A0A274FF0000B3E
:100350004FF0010E4FF0030A4FF00F094FF0000C61
:10036000904208BF0927574A02444FEAB223092B9B
:1003700038BF4FEAB227009700270A6832FA07F31E
:1003800008BFBDE8FC8F0EFA07F312EA030400F081
:1003900090804D6805F00302A2F10108B8F1010F49
:1003A00018D8D0F80890CE680AFA0CF829EA08089C
:1003B00006FA0CF64FF00F0946EA08068660C5F308
:1003C000001606FA07F8466826EA030343EA08031C
:1003D000436001E0032A1DD0C6680AFA0CF3022A22
:1003E00026EA03038E6806FA0CF643EA0603C360A6
:1003F00010D1354D0BF01C0209FA02F305EA57053E
:1004000005442E6A26EA03030E6906FA02F21A432D
:100410002A624D68066805F003020AFA0CF315F427
:10042000403F02FA0CF226EA030342EA03020260AA
:100430003FD0634A0BF00C0609FA06F5136843F047
:1004400002031360126802F002020192019A1F4B2C
:1004500027F0030252F8038028EA0508009D05FAF8
:1004600006F648EA0605D5504FF0B0452A684B68B5
:10047000A24313F4801F18BF224313F4001F2A6005
:10048000134A156825EA040518BF254313F4003FF5
:100490001560D2F8805025EA040518BF254313F4EF
:1004A000803FC2F88050D56F25EA040518BF254368
:1004B000D5670BF1040B0CF1020C01375DE700BFAF
:1004C000002402580000FEA7FCFFFF7F080400582C
:1004D00004000058426902EA0103914341EA0341E2
:1004E00081617047002A08BF0904816170470000DC
:1004F00001480068000C70470010005C28488068C4
:10050000704700BF264801788268114481607047B7
:1005100080B5032000F082F800F0CAF90F49E04BE3
:100520000A68C2F3032209689A5C01F00F01595C62
:1005300002F01F02D040DB4A01F01F0120FA01F156
:100540001160D94908600F2000F00AF808B10120B5
:1005500080BD00F027F8002080BD00BF184402587D
:1005600070B50F4E04463078B0B14FF47A71B1FBDC
:10057000F0F0CD490968B1FBF0F000F0D1FC0125A5
:100580000F2C0AD848B94FF0FF3021460022002531
:1005900000F018F8746000E00125284670BD00BF27
:1005A0000000002481B00648016841F002010160AA
:1005B000006800F002000090009801B0704700BF92
:1005C000F4440258B0B5144C1A4D00F00F03B0F1CA
:1005D000FF3FA3F104032B4403F10C03C8BF03192D
:1005E0002868C0F30220051DC41E80F00700072DF7
:1005F0004FF0010538BF0024042828BF042005FA65
:1006000000F00138084005FA04F10F31A040114014
:10061000084300011870B0BD00E400E005494FF642
:10062000FF030A681A4060F30A2203481043086077
:10063000704700BF0CED00E00000FA05B0B5114DA9
:100640002A68296812F0040F05D101F00701081A81
:1006500018BF0120B0BD21F0070108432860FFF753
:100660004DFF044655F8080C10F4005F1CBF002035
:10067000B0BDFFF743FF001BB0F57A7F84BF0120B8
:10068000B0BDEFE70C4802582DE9F8430446884610
:10069000002C00F0FE80814B186800F00F004045F0
:1006A0000BD2186820F00F0040EA080018601868A4
:1006B00000F00F00404540F0EC802068C74F10F07C
:1006C000040F0AD02169BA6902F07002914281BF19
:1006D000BA6922F070021143B96101070AD5616954
:1006E000FA6902F07002914281BFFA6922F0700249
:1006F0001143F961C1060AD5A169FA6902F4E06201
:10070000914281BFFA6922F4E0621143F9618106E6
:100710000AD5E1693A6A02F07002914281BF3A6AF1
:1007200022F070021143396281070AD5E168BA6983
:1007300002F00F02914281BFBA6922F00F02114309
:10074000B961C10738D0B869A16820F47060084366
:10075000B8616068032806D0022809D1396811F40D
:10076000003F0ED195E0396811F0007F09D190E08B
:100770003968012802D1C90503D48AE0490740F14C
:1007800088803969994621F0070108433861FFF7ED
:10079000B5FE064641F288353869616800F03800D8
:1007A000B0EBC10F06D0FFF7A9FE801BA842F3D91A
:1007B00003206FE020684B4681070AD5E168BA69DB
:1007C00002F00F0291423FBFBA6922F00F021143BB
:1007D000B961196801F00F0141450AD9196821F082
:1007E0000F0141EA08011960196801F00F01414544
:1007F0004FD141070AD52169BA6902F070029142CE
:100800003FBFBA6922F070021143B96101070AD5EE
:100810006169FA6902F0700291423FBFFA6922F001
:1008200070021143F961C1060AD5A169FA6902F49F
:10083000E06291423FBFFA6922F4E0621143F9613C
:1008400080060AD5E069396A01F0700188423FBF2D
:10085000396A21F070010843386200F029F8B9695B
:100860000F4AC1F30321515C01F01F01C840B9696F
:1008700001F00F01515C0B4A01F01F0120FA01F158
:1008800011600949086009480068BDE8F443FFF7B2
:1008900067BE0120C0B201B0BDE8F0830020005265
:1008A000E6110008100000240C00002404000024BD
:1008B0004A490869C0F3C20349484A4A032B10D089
:1008C000022B04BF4848704753B9086810F0200F46
:1008D00010461FBF0868C0F3C10022FA00F070473D
:1008E000704780B5D1F828C0D1F828E0CB6A486BB2
:1008F00003F001035B4203EAD003CEF305106FF36C
:100900005F33002800EE103AB8EE400ABDE88040A0
:1009100004BF002070470CF00303022B20D0012BF2
:100920001AD0CBB902EE100A9FED311AB8EE422A66
:10093000086820EE010A10F0200F39D1086B9FEDF6
:100940002E1A6FF35F2081EE022A03EE100AB8EE32
:10095000433A30EE031A16E00A6B9FED262A02E0B6
:100960000A6B9FED222A01EE100A6FF35F229FEDC2
:10097000203AB8EE414A01EE102AB8EE411A82EE52
:10098000042A00EE031A086BB7EE000A31EE000AE3
:1009900022EE000AC0F34620013001EE100AB8EE44
:1009A000411A80EE010ABCEEC00A10EE100A704730
:1009B0000868C0F3C10022FA00F00A6B03EE100AC7
:1009C0006FF35F2201EE102AB8EE411AB8EE433AF7
:1009D00030EE011A83EE022AD5E700BF0044025828
:1009E00000093D000090D00340787D0120BCBE4B43
:1009F000000000390024744A0024744CF8B5044601
:100A0000002C00F09D812078CE4EC0074CD031697B
:100A1000B06A01F03801102915D0182904BF00F080
:100A2000030002280FD06068A0B1B0F5803F06D067
:100A30003168B0F5A02F23D141F4802030603068B8
:100A400040F4803022E0306810F4003F2CD0606821
:100A500050BB75E1306820F480303060306820F49D
:100A600080203060FFF74AFD0546306810F4003FF3
:100A70001AD0FFF743FD411B03206429F5D94BE24F
:100A800021F480303060306820F480203060FFF73F
:100A900035FD0546306810F4003F05D1FFF72EFD07
:100AA000401B6428F6D962E12078800760D531695F
:100AB000B06A11F0380118D0182908BF5FEA8070B9
:100AC00013D0E0683168E0B321F0190108433060C9
:100AD000FFF714FD0546306810F0040F20D1FFF732
:100AE0000DFD401B0228F6D941E13168E06811F0A4
:100AF000040F02D0002800F02381316821F0190191
:100B000008433060FFF7FAFC0546306810F0040F28
:100B100006D1FFF7F3FC411B03200229F5D9FBE1C5
:100B2000FFF7E6FC216941F2030290421AD808035C
:100B3000402908BF4FF40030716821F47C3108432C
:100B400015E021F001003060FFF7D8FC0546306861
:100B500010F0040F0CD0FFF7D1FC411B0320022939
:100B6000F5D9D9E1706820F0FE4040EA016070607C
:100B70002078C00644D53169B06A01F038010829EF
:100B80001BD0182904BF00F00300012815D0E1692B
:100B90003068002900F01C8140F080003060FFF7D1
:100BA000ADFC0546306810F4807F0ED1FFF7A6FC3F
:100BB000411B03200229F5D9AEE1306810F4807F93
:100BC0001CBFE069802840F0BB80FFF791FC216AE0
:100BD00041F2030290420BD88A062029304608BF12
:100BE0004FF0804250F8041F21F0F841114306E015
:100BF000304650F80C2F22F07C5242EA016101602D
:100C00002078000723D56169706F79B140F0010049
:100C10007067FFF773FC0546706F10F0020F16D176
:100C2000FFF76CFC401B0228F6D9A0E020F0010081
:100C30007067FFF763FC0546706F10F0020F06D077
:100C4000FFF75CFC411B03200229F5D964E1207801
:100C5000800623D5A169306879B140F480503060B6
:100C6000FFF74CFC0546306810F4005F16D1FFF723
:100C700045FC401B0228F6D979E020F48050306012
:100C8000FFF73CFC0546306810F4005F06D0FFF724
:100C900035FC411B03200229F5D93DE120784007AE
:100CA00052D4676A002F00F01E81306900F03800CE
:100CB00018286DD1B16A306B012F41D0A26A01F0C2
:100CC000030393423CD1E26AC1F30511914237D14B
:100CD000226B01466FF35F21013A914230D1C0F39C
:100CE0004621626B013A91422AD1C0F30641A26BC0
:100CF000013A914224D1C0F30660E16B0139884288
:100D00001ED1706BA16CC0F3CC00814200F0EB806F
:100D1000F06A20F00100F062FFF7F0FB0546FFF7F4
:100D2000EDFBA842FBD0706B4FF6F8718843A16CC5
:100D300040EAC1007063F06A40F00100F062D2E066
:100D40000120E9E000440258D6F8000440F4807025
:100D5000C6F80004FFF7D2FB0546D6F8000410F4ED
:100D6000807F06D1FFF7CAFB401B6428F5D903201A
:100D7000D2E0A068F0B3012806D0316F052840F01A
:100D8000B48041F004003067306F40F00100B2E001
:100D9000306820F080703060FFF7B0FB0546022F0E
:100DA0000AD1306810F0007F3DD0FFF7A7FB411B50
:100DB00003200229F5D9AFE0306810F0007F00F081
:100DC0009280FFF79BFB411B03200229F4D9A3E08B
:100DD00020F080003060FFF791FB0546306810F48A
:100DE000807F3FF40DAFFFF789FB411B03200229F1
:100DF000F4D991E0306F20F001003067306F20F0BF
:100E000004003067FFF77AFB054641F28837306F00
:100E100010F0020F3FF445AFFFF770FB411B0320BA
:100E2000B942F4D978E0B06A40F2F33104F130030A
:100E30004FF47E478843D4E90A12084340EA02107F
:100E4000B0620FCB07EB412100F2FF1089B26FF3C4
:100E50005F2008434FF4FE0101EB024101F4FE0163
:100E600008434FF0FE4101EB036101F0FE410843EE
:100E70004FF6F8713063F06A20F00100F062706B99
:100E80008843A16C40EAC1007063F06A216C20F0D5
:100E90000C000843F062F06A616C20F00200084325
:100EA000F062F06A40F48030F062F06A40F40030A2
:100EB000F062F06A40F48020F062F06A40F00100D5
:100EC000F062306840F080703060FFF717FB044636
:100ED000306810F0007F06D1FFF710FB011B0320E4
:100EE0000229F5D918E0002016E021F00100306752
:100EF000306F20F004003067FFF700FB054641F239
:100F00008837306F10F0020F7FF4CBAEFFF7F6FAA0
:100F1000411B0320B942F4D9C0B201B0F0BD0000BA
:100F2000411E0020B0EB116F1CBF01207047044A26
:100F3000F023516003490B700721906011607047E6
:100F400010E000E023ED00E0FEE7000070B586B0A1
:100F5000002500224FF4005605950D48016841F028
:100F6000040101604FF40051006800F0040000909B
:100F70000098944C2046FFF7B5FA0120019601A98C
:100F8000CDE9020520460495FFF7DCF906B070BDF7
:100F9000E0440258FEE7FEE770477047FFF7B2BA39
:100FA000B0B59CB009A84C21FFF799F901A8202100
:100FB000FFF795F90220FFF741FB0020009025483C
:100FC000016841F440410160016801F44041009131
:100FD00021490A6842F001020A60096801F0010132
:100FE00000910099016811F4005FFBD001200521F8
:100FF0000824002509904FF480300A900220CDE9A2
:1010000012001491C021CDE91510CDE9170009A8EF
:101010001994CDE91A55FFF7F1FC18B1EFF31080E0
:1010200072B6FEE73F204FF4806101900320CDE9C6
:10103000020540200494CDE90500CDE9071001A880
:101040000421FFF721FB18B1EFF3108072B6FEE721
:101050001CB0B0BD184802582C0400582348016841
:1010600041F4700101602248016801F00F01062976
:101070009FBF0168072262F30301016010B51D499B
:101080000A6842F001020A6000220A610B681A4CE9
:1010900023400B60036813F0080F1FBF0368072489
:1010A00064F3030303608A61CA610A62134B8B62B3
:1010B000134BCB62134B0B634A638B63CA630B64A2
:1010C0004A640B6823F480230B600A660E490968A2
:1010D000B2EB517FBDE8104002BF0C4901220A600B
:1010E0004FF4005143F2D2024250704788ED00E0C5
:1010F00000200052004402587FEDF6EA000202028E
:101100000000FF01800201010010005C0881005115
:10111000FEE7000070B52948016811F4003F12D1C4
:10112000BFF34F8F0021BFF36F8FC0F83C12BFF3A6
:101130004F8FBFF36F8F016841F400310160BFF33F
:101140004F8FBFF36F8F016811F4803F27D10021CB
:1011500043F6E07C0167BFF34F8FC16E184A62EA25
:10116000D10EC1F34E32C9088B070CEA42111C465E
:10117000754644EA010604F140440135C0F84C626A
:10118000F7D1511E002A0A46EFD1BFF34F8F0168F5
:1011900041F480310160BFF34F8FBFF36F8FFFF7D2
:1011A000B7F9FFF7FDFEFFF7D1FE06484FF40051F7
:1011B000FFF790F96420FFF7B1F8F6E714ED00E0CF
:1011C00000FCFFFF0008025802E008C8121F08C117
:1011D000002AFAD170477047002001E001C1121FB8
:1011E000002AFBD170470000000001020304010245
:1011F0000304060708090000181200080000002474
:1012000018000000C811000830120008180000245F
:1012100000040000D81100080100000010000000C8
:10122000000000000090D0030090D00300000000F8
:040000050800029954
:00000001FF
